:020000040800F2
:10000000D80A0020F9010008ED3700081D2E00086D
:10001000E9370008D10200089D4E000800000000EA
:10002000000000000000000000000000F53700089C
:10003000D502000800000000F1370008F937000879
:10004000130200081302000813020008130200083C
:10005000130200081302000813020008130200082C
:10006000130200081302000813020008130200081C
:10007000130200081302000813020008130200080C
:100080001302000813020008130200081D4D0008A7
:10009000294D00081302000813020008130200088B
:1000A00013020008130200080D3800080138000888
:1000B0001938000813020008130200081302000890
:1000C00013020008130200081302000813020008BC
:1000D0001302000831390008130200081302000857
:1000E000130200081302000813020008130200089C
:1000F000130200081302000813020008130200088C
:10010000130200081302000813020008130200087B
:10011000130200081302000813020008130200086B
:10012000130200081302000813020008130200085B
:1001300000F002F800F050F814A696E8000CB24463
:10014000B344DA4501D100F047F8BAE80F000FA632
:1001500096E83000A5EB040504EB0607AAEB0704BC
:10016000A7F101074FEA15154FEA3414A4F1010471
:10017000AC4201D300F030F813F0010F18BFFB1AA6
:1001800043F0010300F001F8DBE71847B46000001A
:10019000D4600000103A24BF78C878C1FAD852075A
:1001A00024BF30C830C144BF04680C6070470000F1
:1001B000704700000023002400250026103A28BFC5
:1001C00078C1FBD8520728BF30C148BF0B607047C9
:1001D0001FB51FBD10B510BD00F044F81146FFF764
:1001E000F7FF04F05DFE00F062F803B4FFF7F2FFE2
:1001F00003BC00F065F80000094880470948004743
:10020000FEE7FEE7FEE7FEE7FEE7FEE7FEE7FEE7C6
:10021000FEE7FEE704480549054A064B7047000023
:10022000FD37000831010008D8040020D80A00205A
:10023000D8060020D806002070477047704710B5D8
:1002400000F008F8006810BD10B5044600F002F890
:10025000046010BD0048704720000020004870472F
:10026000200000207546FFF7F9FFAE4605006946FD
:10027000534620F00700854618B020B5FFF7CAFFA7
:10028000BDE820404FF000064FF000074FF0000897
:100290004FF0000BAC46ACE8C009ACE8C009ACE8D4
:1002A000C009ACE8C00921F007018D46704710B5C0
:1002B0000446AFF300802046BDE81040FFF795BF2D
:1002C00001491820ABBEFEE726000200704700007F
:1002D000FEE7000070470000EFF3108072B600BF29
:1002E000FEE70000014690F82100022816D10868B8
:1002F000D1E90FC3026822F00E020260026822F008
:1003000001020260012000FA03F2CCF8042081F817
:1003100021000020002281F82020704704208863FB
:100320000120002281F820207047000090F8211061
:10033000022923D1026840F2040C1168C4F2020CB5
:1003400021F00E01116013682F21C4F202018A42CC
:1003500023F00103136015DD3023C4F202039A4237
:100360001CD04423C4F202039A421BD05823C4F287
:1003700002039A421CD14FF4803321E004218163AF
:10038000012070470823C4F202039A420ED01C23B6
:10039000C4F202039A420BD1102311E04FF4807390
:1003A0000EE000BF4FF480530AE000BF012307E0D6
:1003B0000CF168014FF080738A4208BF4FF480133C
:1003C0000121CCF8003080F82110416B0022002977
:1003D00080F8202004BF0020704780B588470020A7
:1003E00080BD0000B0B5044600F024F9054640F297
:1003F0001400C2F200000078611C18BF044400BF62
:1004000000F018F9401BA042FAD3B0BD2DE9F04F1F
:1004100082B00E68002E00F0FD8041F20042C4F26E
:100420000102042340F2004E904208BF03234FF61E
:10043000FF7CC4F2010E009300240123C1F2100CD2
:100440004FF0000A4FF000094BE000BF41F20002FC
:10045000C4F20102009F904208BF022704F00C037F
:100460000F229A402BEA020207FA03F34FEA9A0599
:100470001A4346F825204E6840F20C45F202DEF899
:10048000082054BF22EA080242EA0802C4F2010529
:10049000CEF808202A68B30254BF22EA080242EAD2
:1004A00008022A60B303DEF8042054BF22EA0802DF
:1004B00042EA0802F303CEF80420DEF800204FF0F1
:1004C000010354BF22EA080242EA0802CEF80020E3
:1004D0000E680AF1010A36FA0AF204F1040400F087
:1004E000998003FA0AFB16EA0B08F1D04E686645BC
:1004F00012DC122E56D8DFE806F0350B4D49555563
:10050000555555555555555555555545510000BFEF
:10051000D1F80C9046E000BF4FF6FF72C1F2210205
:1005200096420FDC0022C1F2110296421AD000223C
:10053000C1F21202964215D00022C1F22102964267
:1005400010D02FE00022C1F2220296420AD00022EF
:10055000C1F23102964205D00022C1F23202964227
:1005600020D100BF8A684AB1012A14BFC0F814B074
:10057000C0F810B04FF0080914E000BF4FF00409B4
:1005800010E000BFCA6802F104090BE04FF0000957
:1005900008E000BFCA6802F1080903E0CA6802F176
:1005A0000C0900BF02462646B8F5807F24BF0432FE
:1005B000203E17680F25B54027EA050509FA06F61B
:1005C00035431560CA79D2067FF582AF41F2180330
:1005D000C4F202031A68AEF57E7642F001021A6098
:1005E0001A6802F001020192019A2AF0030256F8F9
:1005F00002B040F60002C4F20102904208D040F678
:100600000042C4F2010290427FF420AF012725E7A7
:10061000002723E702B0BDE8F08F000080680840A3
:1006200018BF012070470000002A08BF09040161BB
:100630007047000040F2D040C2F2000000687047EE
:10064000002804BF01207047F0B581B0044690F83F
:100650003D0028B9002084F83C00204600F0F6FA5E
:10066000242084F83D002068016821F00101016028
:10067000016841F400410160016821F4004101601A
:1006800001F06EFA636848F2A16CC0F2010C40F60A
:100690000011C0F23D0163453CBF48F28041C0F209
:1006A0001E01884202D2012001B0F0BD4DF68361E7
:1006B000C4F21B31A0FB01122168970CD1F804E0B1
:1006C0004FF496762EF03F0545EA92454D6077430C
:1006D00048F638160D6AC0F24106A7FB067625F0EB
:1006E0003F07634538BF960C721C3A430A62CA69D9
:1006F00048F2A0664CF6FF77C0F20106B34222EA48
:1007000007020BD801385B00B0FBF3F001306FF348
:100710001F30042898BF04201BE000BFA7680138E1
:1007200057B119277B43B0FBF3F001306FF31F3053
:1007300070B100F5804007E003EB4303B0FBF3F03A
:1007400001306FF31F3018B100F5004001E000BF29
:1007500001201043C8610868D4E9072320F0C000D5
:10076000104318430860886848F2FF3204F10C0710
:1007700090438CCF18431043A6698860C86820F066
:10078000FF0038433043C860086840F0010008604B
:1007900000202021206484F83D10206384F83E006E
:1007A00001B0F0BD2DE9F04F85B004460020994618
:1007B00016460F460490FFF73DFF94F83D102029A0
:1007C00027D10546206800BF816989071CD5FFF73E
:1007D00031FF411B20681A29F6D381698907F3D5B7
:1007E00000202021206384F83D1084F83E00206C16
:1007F00004F13C0A40F020002064022000218AF825
:10080000001005B0BDE8F08FA2461AF83C1F012980
:1008100004D1022005B0BDE8F08F00BF01228AF8A4
:1008200000200368DDE90F180E9ADB0703D1036887
:1008300043F001030360036823F400630360222094
:1008400084F83D00402084F83E000020206462626D
:100850006185608D394620850020CFF6FF70E0620B
:10086000204632464B46CDE9008502F0D9FA18B150
:10087000012005B0BDE8F08F208D022826D0012888
:100880000ED0002838D100200390206841690391E0
:10089000816903910399016841F40071016037E0B7
:1008A0002068016821F480610160EFF3108072B666
:1008B00000200390206841690391816903910399A5
:1008C000016841F40071016062B621E020680168AE
:1008D00041F400610160EFF3108072B600200390D4
:1008E000206841690391816903910399016821F4AA
:1008F0008061016062B60BE02068016841F48061AC
:10090000016000210391416903918069039003987C
:10091000208D002800F0CC80042740F21C094BF207
:10092000895BC0F20107C2F20009C1F2F84B23262D
:100930000EE000BF10690870606A218D01306062AE
:10094000481E2085618D01396185010400F0B08069
:1009500080B203280CD802282CD001284AD1204686
:1009600041462A4602F0FAFC002800F09C807FE70E
:10097000204641462A4602F0F1FC00287FF478AF79
:100980002068616A00690870606A2268411C208DD5
:10099000616201382085638D013B638553695B0784
:1009A000D3D580B20328C5D1106820F480601060D0
:1009B000C0E700BF2046394600224346009502F0BA
:1009C0007BFB00287FF454AFEFF3108072B62068F1
:1009D000616A026842F40072026000690870606A2D
:1009E000218D01306062481E2085608D0138608550
:1009F00062B658E02046394600224346009502F090
:100A00005BFB00287FF434AF2068016821F480612B
:100A10000160EFF3108072B62068616A00690870A7
:100A2000606A218D0130013960622185618D013953
:100A30006185D9F80010C908A1FB0B12110A714396
:100A40000491049901390491049900293CD021684A
:100A50004A69520717D4049A013A0492049A9AB345
:100A60004A6952070FD4049A013A0492049A5AB37D
:100A70004A69520707D4049A013A0492049A1AB3B5
:100A80004A695207DDD50A6842F400720A600969B2
:100A90000170606A218D01306062481E2085608D82
:100AA0000138608562B62068616A006943E700BF6B
:100AB000202084F83D00002084F83E0000218AF8C0
:100AC000001005B0BDE8F08F00202021206384F8DD
:100AD0003D1084F83E00206C40F02000206462B697
:100AE000012000218AF8001005B0BDE8F08F000059
:100AF0002DE9F04383B0994616460F460446FFF7AA
:100B000099FD94F83D10202924D10546206800BFA6
:100B1000816989071AD5FFF78DFD411B20681A29C5
:100B2000F6D381698907F3D500202021206384F85A
:100B30003D1084F83E00216C41F02001216484F8CE
:100B40003C00022003B0BDE8F08300BF94F83C10E5
:100B5000012903D1022003B0BDE8F083012284F80B
:100B60003C200368DDE90B180A9ADB0703D1036810
:100B700043F001030360036823F400630360212052
:100B800084F83D00402084F83E000020206462622A
:100B90006185608D394620850020CFF6FF70E062C8
:100BA000204632464B46CDE9008502F0C3F918B124
:100BB000012003B0BDE8F083208D98B9204641465E
:100BC0002A4602F01BFA88B3206C0428F0D1206872
:100BD000016841F400710160012003B0BDE8F083B9
:100BE0000004EBD0204641462A4602F0FFFB0028D5
:100BF000EAD1616A2268084610F8013B1361238D2F
:100C00006062581E2085678D013F678557697F07A1
:100C1000E6D50704E4D048781061881C6062981E0D
:100C20002085618D01396185DAE700BF20680168A0
:100C300041F400710160202084F83D00002084F818
:100C40003E0084F83C0003B0BDE8F08310B586B0E8
:100C5000016845F20040C4F2000081424FF00001FB
:100C6000CDE90411CDE9021102D006B010BD00BFDC
:100C700041F21804C4F20204216800F5384041F042
:100C800008012160216801F0080101910199C0214A
:100C90000291122103910321059102A9FFF7B6FBEE
:100CA000606840F400106060606800F4001001901B
:100CB000019806B010BD000040F2140040F2D0418F
:100CC000C2F20000C2F2000100780A681044086015
:100CD0007047000080B542F20000C4F202000168D3
:100CE00041F010010160032000F084F80F2000F0B3
:100CF00005F800F027F8002080BD000070B540F234
:100D00001406C2F2000640F21C013278C2F2000161
:100D10004FF47A730968B3FBF2F20446B1FBF2F1C7
:100D2000084601F031F90F2C4FF0010508D838B909
:100D30004FF0FF3021460022002500F02FF87460AC
:100D4000284670BD82B041F21800C4F2020001686A
:100D500041F001010160016801F001010191019977
:100D6000416841F080514160406800F0805000903F
:100D7000009802B070470000002848BF704700F09C
:100D80001F01012202FA01F11C2202EAD0004EF2F8
:100D90000012CEF2000281507047000010B54EF6EE
:100DA0000C5CCEF2000CDCF80030C3F3022E8EF0A7
:100DB0000704042C28BF0424BEF103034FF0FF3EB8
:100DC0000EFA04F438BF0023A14399400EFA03F34E
:100DD0009A43114300F00F0200F160430901043A05
:100DE00003F564436244002848BF02F10C03197004
:100DF00010BD00004EF60C51CEF200010A684FF60D
:100E0000FF031A4060F30A2242F0806040F0FD7058
:100E10000860704701EB8102D0F8D43200EBC200C9
:100E2000426A184602F0DABD01EB8102D0F8D432F2
:100E300000EBC200D0F86421184602F035BE000075
:100E4000B0B5027901F00F03934284BF0120B0BD19
:100E50004AB24FF4A874002A48BF102401F0070ECC
:100E6000021990F890420EEB8E034FEAD11C02EB70
:100E7000C301012C4FF0000481F801C08C7002F80E
:100E800033E004BF0220B0BD0268012380F8903235
:100E90000546104603F0D4FA204685F89042B0BDCE
:100EA000B0B54FFA81FC4FF4A87401F0070EBCF105
:100EB000000F48BF102404440EEB8E054FEAD11CEE
:100EC00004EBC50181F801C004F835E00A61022B8A
:100ED000CB7004BF00220A7190F89022012A04BF4F
:100EE0000220B0BD0268012380F89032044610460B
:100EF00003F066F9002084F89002B0BD10B501F04F
:100F0000070C0CEB8C0100EBC10E00680EF5A8710C
:100F10000024CEF86421CEF86831CEF86C418EF80A
:100F200051418EF850C103F0DFFA002010BD0000DF
:100F3000B0B5027901F0070494424FF001022BD8BA
:100F40004BB24FF4A875002B48BF10254FEAD11CB7
:100F500048BF2146054401EB810305EBC30181F83D
:100F600001C090F890C28A70BCF1010F05F83340BF
:100F700004BF0220B0BD02680123054680F890320C
:100F8000104603F097FA24B9286805F5267103F096
:100F900055FA002285F890221046B0BD80B501F0C8
:100FA000070C0CEB8C0100EBC10101F810CF0068BD
:100FB0004FF0010C01F1140781F824C04FF0000E2E
:100FC00087E80C400B6281F801C003F08DFA002025
:100FD00080BD00002DE9F04F83B00446006803F0A7
:100FE000A9FE01041ED4410500F1E483410400F18F
:100FF000F383810400F10884C10400F10F8401052A
:1010000000F12684810500F17584C00540F1E0837C
:101010002068B0F8441021F48071A0F8441003B0A7
:10102000BDE8F08F2068B0F94410B1F1FF3F00F344
:10103000CF8304F5A871019104F1100148F2C005B5
:10104000029104F5267140F60F78009123E000BF6D
:10105000B0F8501094F8502100EB410101EB02115F
:10106000B1F80C34B4F8562100996FF39F23C4F8FB
:101070006C3103F063FE2068018801EA08018031C9
:101080000180204600F072FC2068B0F94410B1F1F4
:10109000FF3F00F39D83B0F8442012F00F090DD0FC
:1010A00030F929104FEA490BB1F1FF3F1FFA81FADD
:1010B00030DD5FEA0A60E7D548E100BF0188D2066B
:1010C00062D401EA080101F500410180B0F8501036
:1010D000227C00EB410000EB0210B0F80404616ACE
:1010E0006FF39F20E0620844606220460021FFF712
:1010F00091FE607B0028C7D0A06A0028C4D1607B25
:10110000216840F08000C0B2A1F84C00002060735C
:10111000BAE700BF30F81B1001EA0801803120F85F
:101120001B10019A09EB890102EBC106317B0029F2
:1011300000F07E80F178022940F08A80B0F85030CB
:101140003178B26900EB43035FEA4A4703EB0113CE
:1011500000F19680B3F80C7400236FF39F27D21B25
:1011600038BF1A46B26140F2A1805FEA4A6200F1DC
:10117000AD8030F8212002EA08022A4320F821201D
:10118000002F40F0A480C3E00A053FF561AF09B22B
:10119000B1F1FF3F3FF778AF018801EA08018031E4
:1011A0000180B0F8501094F8502100EB410101EBA0
:1011B0000211B1F80C346FF39F23C4F86C3193B172
:1011C000D4F8641179B1B4F8562103F0B7FDD4F81E
:1011D0006401D4F86C110844C4F86401204600216D
:1011E000FFF722FE206801880A053FF54DAF01F4A4
:1011F0004051B1F5405F3FF447AFB0F8501000F2F6
:101200000C42535A6FF39F235352D4F860313F2B53
:10121000C0F0E881DE068E5A4FEA53174FF0FF35D3
:1012200008BF05EB531748F2C00546EA872362E280
:10123000B0F85010327800EB410101EB0211B1F827
:101240000C746FF39F27002F62D07169F2885AE007
:10125000317830F8212002EA08022A4320F82120C0
:1012600030F82120B0F8503000EB0111520401EBAE
:10127000430115D4B1F80C746FF39F273FBB47E0CF
:10128000B3F8047400236FF39F27D21B38BF1A46AC
:10129000B2611FD95FEA4A622BD497BB38E000BF26
:1012A000B1F804746FF39F275FBB31E030F8212061
:1012B00043F60F731A404CF28003A3F500535A40D3
:1012C00020F821205FEA4A627FF553AF07B37169C6
:1012D000728918E030F8212043F60F731A404CF25F
:1012E0008003A3F500535A4020F821205FEA4A62A8
:1012F000D3D530F8212002EA08022A4320F8212021
:1013000037B1716932893B4603F018FD01E000BF37
:101310000027F169D6E9050239443844F16170616A
:1013200012B13069B84209D931782046FFF77CFD07
:101330005FEA0A607FF5A8AE08E000BF206831468A
:1013400003F0D2F85FEA0A607FF59EAE206809EBF1
:10135000890130F81B20029B03EBC10602EA080159
:1013600001F5004120F81B10F178012922D1317BD1
:1013700000294FF00001B16100F02F815FEA4A615E
:1013800000F180807178012900F01481002940F07B
:101390002481B0F850103278084400EB0210B0F805
:1013A0000C146FF39F21A0F80C14B0F80C1441F446
:1013B000004106E15FEACA511ED4B0F850203178EE
:1013C00000EB420202EB0112B2F80424B3696FF39E
:1013D0009F229B1A4FF0000738BF3B46B36140F293
:1013E000FD807169F369114471619918F1613146A9
:1013F00003F07AF848E600BFB0F850303178B569AC
:101400005FEA4A6200EB011754D407F20C4E3EF833
:10141000133000226FF39F23ED1A38BF1546B561D4
:101420007CD95FEA4A4708D430F821704CF2800535
:1014300007EA08072F4320F8217096F8241048F295
:10144000C005012940F0A981D6E904C1D6E90757B2
:1014500019441D4467457161F56180F0FB80002FE0
:1014600000F06081BC46326286F82420737848F22E
:10147000C005012B40F0F780B0F850302EF803C0C3
:101480007CE100BF7178012900F09E80002940F0C6
:10149000A480B0F850103278084400EB0210B0F885
:1014A00004146FF39F21A0F80414B0F8041441F45D
:1014B000004190E007F2044939F8133000226FF33D
:1014C0009F23ED1A38BF1546B5614DD95FEA4A47EB
:1014D00008D530F821704CF2800507EA08072F4341
:1014E00020F8217096F8241048F2C005012940F038
:1014F0005481D6E90471D6E9075E19441D44BE45FE
:101500007161F56180F0CE804FF0000CBEF1000FEC
:1015100086F824C040F0C9809E46C8E0737848F23F
:10152000C005012B6AD0002B71D1B0F850303B447C
:10153000B3F804746FF39F27A3F80474B3F804742A
:1015400047F40047A3F80474B0F850003EF80030A8
:101550006FF39F232EF800303EF8003043F4004331
:101560002EF8003053E000BF737848F2C005012B1D
:1015700054D0002B5BD1B0F8503039F803506FF3E2
:101580009F2529F8035039F8035045F4004529F800
:101590000350B0F8500048F2C0053844B0F80C24AD
:1015A0006FF39F22A0F80C24B0F80C2442F4004200
:1015B0003BE000BFB0F850103278084400EB021056
:1015C0000021A0F80C1408E0B0F85010327808445C
:1015D00000EB02100021A0F8041431782046FFF738
:1015E00019FC51E5002B00F0858003F00107565AE5
:1015F00007EB530346EA832382E000BFB0F8503084
:101600003B44A3F80424B0F850002EF800202046F4
:10161000FFF700FC5FEA4A4010D5BEE0B0F850305A
:1016200029F80320B0F850003844A0F80C242046D4
:10163000FFF7F0FB5FEA4A4040F1AF802068317865
:101640004CF2800330F8212002EA08021A4320F805
:101650002120A2E0A7EB0C033362737848F2C005A7
:10166000012B3FF409AF002B40F08880B0F85030D8
:10167000BCF13F0F3EF803706FF39F272EF8037005
:101680005AD35FEACC654FEA5C173EF803504FF03F
:10169000FF3208BF02EB5C1745EA872748F2C00516
:1016A00068E000BFAEEB070CBE46C6F820C07378FA
:1016B00048F2C005012B2FD0002B69D1B0F8503073
:1016C000BEF13F0F39F803706FF39F2729F80370BD
:1016D00040D35FEACE654FEA5E1739F803504FF00A
:1016E000FF3208BF02EB5E1745EA872748F2C005C4
:1016F0004AE000BF535A48F20007CFF6FF773B435A
:101700008B52018843F60F7211404CF28002A2F511
:10171000805251400180B7E4B0F8503029F803E01E
:1017200036E000BF002786F824709C46737848F2A4
:10173000C005012B97D19FE6BCF1000F18D00CF02B
:1017400001073EF8035007EB5C0745EA872748F29C
:10175000C00511E0BEF1000F14D00EF0010739F8FA
:10176000035007EB5E0745EA872748F2C0050DE006
:101770003EF8037047F400472EF8037072891FFA91
:101780008CF308E039F8037047F4004729F8037038
:1017900032891FFA8EF303F033FB2068317840F66C
:1017A0003F7330F821201A40A5F110035A4020F869
:1017B000212069E42068B0F8441021F48061A0F889
:1017C0004410204600F0A4F894F8900201280DD1AE
:1017D00003B0BDE8F08F00BF2068B0F8441021F4DA
:1017E0008041A0F8441003B0BDE8F08F012000252F
:1017F00084F8900265732068002103F0F9FA84F8F8
:10180000905203B0BDE8F08F2068B0F8441021F486
:101810000051A0F8441003B0BDE8F08F2068B0F884
:10182000401021F00401A0F84010B0F8401021F061
:101830000801A0F84010204600F07CF82068B0F8BD
:10184000441021F48051A0F8441003B0BDE8F08F9B
:101850002168B1F800C0B1F804E0B1F808808F89C0
:101860000E8A8D8A088B8A8BB1F8403043F00103D1
:10187000A1F84030B1F8403023F00103A1F8403026
:10188000B1F844305B050CD4B1F844305B055CBF63
:10189000B1F844305FEA435303D4B1F844305B05F8
:1018A000EED5B1F8443023F48063A1F84430A1F8B8
:1018B00000C0A1F804E0A1F808808F810E828D821B
:1018C00008838A83B1F8400040F00800A1F8400086
:1018D000B1F8440020F40060A1F84400B1F84000E1
:1018E00040F004022046A1F8402003B0BDE8F04FCC
:1018F00000F044B82168B1F8440020F4007220469A
:10190000A1F8442003B0BDE8F04F00F017B8000084
:1019100010B504468079022818BFFEF7DDFCD4F824
:10192000D402012102F07CF9D4F8D402BDE81040C1
:1019300002F034B9D0F8D40202F05AB9D0F8D40287
:1019400002F060B990F89022012A04BF022070478B
:1019500010B5012280F890224173026804461046B7
:1019600003F046FA002084F8900210BDD0F8D4228B
:1019700000F52671104602F069B9000010B5044662
:10198000D0F8D40202F0A2F9A07A002808BF10BD56
:101990004EF61050CEF20000016841F006010160E1
:1019A00010BD0000002804BF012070472DE9F0435E
:1019B00081B042F20008C4F202080446D8F80000E0
:1019C0000D4600F0070081420CD9D8F8000020F045
:1019D00007002843C8F80000D8F8000000F007000E
:1019E000A8426CD1206841F204098107C4F20209BF
:1019F00017D5410705D5D9F8001041F4E061C9F8C1
:101A00000010010705D5D9F8001041F46051C9F85C
:101A10000010D9F80010A26821F0F0011143C9F8B4
:101A20000010C00742D1D8F8000000F0070085423E
:101A30000CD2D8F8000020F007002843C8F80000B6
:101A4000D8F8000000F00700A84238D1206841070C
:101A500007D5D9F80010E26821F4E0611143C9F814
:101A60000010000708D5D9F80000216920F4605063
:101A700040EAC100C9F80000D9F8002002F00C00CB
:101A8000082841F20020C0F27A004DD146F23023FE
:101A9000C2F38341C0F60003595CD20338D440F648
:101AA0000010C0F23D0048433EE000BF606859F8B6
:101AB000041C022808D0012826D1890306D401205D
:101AC00001B0BDE8F08300BF8901F8D5D9F8001056
:101AD00021F003010843C9F80000FEF7ABFD0646FC
:101AE00041F28837D9F80000616800F00C00B0EBD3
:101AF000810F98D0FEF79EFD801BB842F2D90320DB
:101B000001B0BDE8F08300BF8907D8D5DEE700BF8C
:101B1000D9F8002046F22E23C2F34042C0F600035B
:101B20009A5C4843B0FBF2F0D9F8001046F2162256
:101B3000C1F30311C0F60002515C40F21C0220FA0E
:101B400001F140F21800C2F200000068C2F2000287
:101B50001160FFF7D3F8002001B0BDE8F08300006A
:101B600040F21C0041F20401C2F20000C4F2020182
:101B70000068096846F22622C1F30221C0F600027D
:101B8000515CC84070470000002804BF0120704726
:101B90002DE9F04182B00446007841F20006C0070A
:101BA000C4F202060CD0706800F00C00042840F06B
:101BB00081803068800303D56068002800F046818A
:101BC000207880071BD5706810F00C0F09D0706862
:101BD00000F00C00082840F087807068C00300F116
:101BE00083803068800703D52069012840F02E816A
:101BF0003068616920F0F80040EAC1003060207868
:101C0000000713D4207840072CD4E569002D00F09C
:101C10001881706800F00C00082840F0A780012DA2
:101C200040F00481012002B0BDE8F081A0690028E5
:101C300000F084800020C4F242200121C0F880140A
:101C4000FEF7F8FC054600BF706A800700F1B2801D
:101C5000FEF7F0FC401B0228F6D9032002B0BDE8D5
:101C6000F08100BFF0695FEAC00808D4F06940F075
:101C70008050F061F06900F080500090009847F2C9
:101C80000007C4F200073868C00549D4386840F43A
:101C900080703860FEF7CEFC054600BF3868C0058E
:101CA0003ED4FEF7C7FC401B6428F7D9032002B0DE
:101CB000BDE8F081706800F00C00082803D170685E
:101CC000C0033FF576AF61683068002900F00C81F1
:101CD000B1F5A02F00F00081B1F5803F40F01A81EE
:101CE00040F480301CE100BF2069002840F2000071
:101CF000C4F2422000F0888001210160FEF79AFCC6
:101D0000054600BF306880073FF572AFFEF792FCD2
:101D1000401B0228F6D9032002B0BDE8F08100BFC5
:101D2000E168306A002900F09D80052900F092806A
:101D3000012940F0AF8040F00100B1E00020C4F282
:101D400042200021C0F88014FEF774FC054600BF55
:101D5000706A80077FF556AFFEF76CFC401B0228C7
:101D6000F6D9032002B0BDE8F08100BF0027C4F21D
:101D7000422700203866FEF75DFC022D05460DD196
:101D80003068800140F1DE80FEF754FC401B0228E1
:101D90004FF00300F4D902B0BDE8F0813068800153
:101DA0004FD5FEF747FC401B02284FF00300F5D942
:101DB000F1E700BF40F21C00C2F20000006844F6E8
:101DC000D351C1F26201A0FB0101480A019000BF9A
:101DD00000BF0198411E002801913FF413AF00BFDE
:101DE0000198411E002801913FF40CAF00BF0198FB
:101DF000411E002801913FF405AF00BF0198411E2C
:101E000000280191E4D1FDE600210160FEF712FCFB
:101E1000054600BF306880077FF5F1AEFEF70AFC8B
:101E2000401B02284FF00300F4D9B4E77068216A20
:101E300000F480328A4209D1616A00F4701088424D
:101E400004D1002002B0BDE8F08100BF012002B043
:101E5000BDE8F08140F004003062306A40F00100DB
:101E60001EE000BF20F001003062306A20F0040064
:101E70003062FEF7DFFB054641F28837306A8007A3
:101E800020D5FEF7D7FB401BB8424FF00300F5D931
:101E900081E700BF20F001003062306A20F00400CA
:101EA0003062FEF7C7FB054641F28837306A80078B
:101EB00008D4FEF7BFFB401BB842F7D9032002B09D
:101EC000BDE8F081B8F1000F3FF59FAEF06920F05A
:101ED0008050F06199E600BF40F4802030603068A7
:101EE00040F480301CE000BF20F480303060306867
:101EF00020F480203060FEF79DFB054630688003AB
:101F00007FF55EAEFEF796FB401B64284FF00300A2
:101F1000F4D940E720F480303060306820F480202D
:101F20003060FEF787FB0546306880033FF548AE1A
:101F3000FEF780FB401B6428F6D9032002B0BDE801
:101F4000F08100BF206AB0F5803F05D17168A268BA
:101F500021F40031114371607168626A21F47411D7
:101F600011430843706001203866FEF763FB0446A6
:101F7000306880013FF565AFFEF75CFB001B02286F
:101F80004FF00300F4D906E7411E0020B0EB116FBB
:101F90001CBF012070474EF21002CEF200025160C9
:101FA0004EF62351CEF20001F0230B700721906012
:101FB00011607047704700007047000090F83C20A7
:101FC000012A4FF0020236D010B580F83D20026899
:101FD000D2F804E0D2F808C00C682EF07003234356
:101FE00040F2FF74C4F20004A24253600ADCB2F172
:101FF000804F13D040F20043C4F200039A420DD048
:1020000011E000BF42F60043C4F201039A4205D03A
:1020100040F60003C4F200039A4204D149682CF050
:102020008003194391600121002280F83D1080F85F
:102030003C20BDE81040104670470000002804BF57
:102040000120704710B590F83D1031B9002180F89B
:102050003C10044600F070F82046022180F83D1044
:10206000016840F2FF740B68C4F2000442F6004CB1
:10207000A142C4F2010C15DCB1F1804F1AD040F23C
:102080000042C4F20002914214D0A14218DCB1F126
:10209000804F1DD040F20042C4F20002914217D09E
:1020A0001AE000BF614505D040F60002C4F200020C
:1020B0009142EAD1826823F070031343A142E6DD26
:1020C000614505D040F60002C4F20002914203D1FE
:1020D000026923F440731343846923F08002D0F82B
:1020E00004E0C368224361450A60CB62C1F828E07E
:1020F00002D14269CCF8302001224A610B69DB072A
:1021000003D00B6923F001030B6180F8462080F8AF
:102110003E2080F83F2080F8402080F8412080F861
:10212000422080F8432080F8442080F8452080F841
:102130003D20002010BD000010B582B00068B0F155
:10214000804F1DD042F60041C4F20101884231D1D6
:1021500041F21800C4F202000168002241F400615B
:1021600001600068002100F40060019001981A20CD
:10217000FEF714FE1A20FEF7FFFD1B240EE000BF41
:1021800041F21800C4F2020041681C2441F0010130
:102190004160406800F00100009000982046002156
:1021A0000022FEF7FBFD204602B0BDE81040FEF71E
:1021B000E3BD00BF02B010BD90F83C20012A4FF0F3
:1021C00002026CD080B580F83D20D0F800C04FF6F8
:1021D0007772DCF8083023EA0202CCF808200B689A
:1021E0004F2B29DC1F2B45DD202B46D0302B44D034
:1021F000402B40F0AF80D1F804E0C968DCF8203013
:10220000DCF8202022F00102CCF82020DCF8182095
:1022100022F0F00242EA011123F00A0242EA0E0221
:10222000CCF81810CCF82020DCF8081041F0470159
:1022300021F0300128E000BF6F2B33DDB3F5005FE4
:1022400074D0B3F5805F21D0702B40F08380D1E94A
:1022500001E3C968DCF8082043EA0E0322F47F4258
:1022600043EA01211143CCF80810DCF8081041F0D2
:10227000770109E00BB1102B6CD1DCF8081021F0CC
:102280007001194341F00701CCF808100022012128
:1022900080F83D10002180F83C10BDE880401046D9
:1022A000704700BF502B21D0602B53D1D1F804E0F0
:1022B000C968DCF82030DCF8202022F01002CCF8CD
:1022C0002020DCF8182022F4704242EA013123F089
:1022D000A00242EA0E12CCF81810CCF82020DCF84C
:1022E000081041F0670121F01001CDE7D1F804E0BA
:1022F000C968DCF82030DCF8202022F00102CCF89C
:102300002020DCF8182022F0F00242EA011123F02C
:102310000A0242EA0E02CCF81810CCF82020DCF8B1
:10232000081041F0570121F02001ADE7D1E901E3A8
:10233000C968DCF8082043EA0E0322F47F4243EA2E
:1023400001211143CCF80810DCF8081041F4804159
:102350009AE700BF01229AE77047000070B5044673
:102360000068C5680669B10716D515F0020113D0DB
:102370006FF002010161012121778069800703D09C
:102380002046FFF7E9FF05E0204600F08FF82046E1
:1023900000F010FA00202077700719D515F004001E
:1023A00016D020686FF00401016102212177806955
:1023B00010F4407F04D02046FFF7CEFF06E000BFB8
:1023C000204600F073F8204600F0F4F90020207752
:1023D000300717D515F0080014D020686FF00801F9
:1023E000016104212177C069800703D02046FFF7EF
:1023F000B3FF05E0204600F059F8204600F0DAF976
:1024000000202077F00619D515F0100016D02068AE
:102410006FF01001016108212177C06910F4407F3D
:1024200004D02046FFF798FF06E000BF204600F0EA
:102430003DF8204600F0BEF900202077F00718BFD5
:1024400015F0010002D1300609D412E020686FF0C7
:1024500001010161204600F01DFA300609D515F092
:10246000800006D020686FF0800101612046FFF7F0
:10247000A1FD700609D515F0400006D020686FF068
:1024800040010161204600F007FAB00658BF70BD58
:1024900015F0200008D021686FF0200220460A6164
:1024A000BDE87040FFF788BD70BD000070470000B8
:1024B00090F83C30012B04BF022070474FEAB20273
:1024C000032A00F2F1802DE9F043DFE802F003A5D2
:1024D0003B7500BF036842F600461D6A1A6AC4F2E3
:1024E000010622F001021A621A465C6852F818CFFF
:1024F000B3428E68D1F800E025F0020545EA0605F2
:102500000CD1CE68D1E9057824F4407425F00C058F
:1025100026F004063C43354344EA08042CF07307D4
:1025200047EA0E075C609F614F6809695F631D623F
:102530009F6947F008079F619F6927F004079F6123
:10254000A6E000BF036842F600461D6A1A6AC4F29C
:10255000010622F480721A621A46D3F804C052F8B7
:102560001CEFB3428E680C6825F4007545EA062519
:102570000FD1CE68D1E90598360240F2FF4725F425
:102580004065BE4335432CF4405748EA090647EA04
:10259000061C2EF073072743C3F804C0DF614F68A1
:1025A0000969DF631D62DF6947F00807DF61DF69E2
:1025B00027F00407DF616BE0036842F60047D3F8B9
:1025C00020C01A6AC4F2010722F480521A621A4625
:1025D0005C6852F81C5FD1F800E08E68BB4204D101
:1025E0004F6924F4804444EA87142CF4005747EAE6
:1025F000063725F4E64646EA0E265C60DE614E6844
:1026000009691E641F62DF6947F40067DF61DF69E3
:1026100027F48067DF613AE0036842F600461D6AEE
:102620001A6AC4F2010622F010021A621A46D3F89E
:1026300004C052F8184FB3428E68D1F800E025F07C
:10264000200545EA06150FD1CE68D1E905986FF04F
:10265000400725F0C00507EA061635432CF440670D
:1026600048EA090647EA860C24F4E64444EA0E27C1
:10267000C3F804C09F614F6809699F631D629F6929
:1026800047F400679F619F6927F480679F61090293
:102690001368194311600021BDE8F043002280F85F
:1026A0003C200846704700BF0121002280F83C20F2
:1026B00008467047002804BF0120704710B590F805
:1026C0003D1031B9002180F83C10044600F070F84C
:1026D0002046022180F83D10016840F2FF740B682B
:1026E000C4F2000442F6004CA142C4F2010C15DC15
:1026F000B1F1804F1AD040F20042C4F20002914280
:1027000014D0A14218DCB1F1804F1DD040F200423C
:10271000C4F20002914217D01AE000BF614505D013
:1027200040F60002C4F200029142EAD1826823F02E
:1027300070031343A142E6DD614505D040F6000277
:10274000C4F20002914203D1026923F4407313439F
:10275000846923F08002D0F804E0C3682243614515
:102760000A60CB62C1F828E002D14269CCF830207F
:1027700001224A610B69DB0703D00B6923F00103D7
:102780000B6180F8462080F83E2080F83F2080F8DA
:10279000402080F8412080F8422080F8432080F8D3
:1027A000442080F8452080F83D20002010BD000026
:1027B0007047000070470000C1B1042908D0082903
:1027C00014BF41224022825C012A05D016E000BFDE
:1027D0003F22825C012A11D10222082910D004294B
:1027E00014BF80F8412080F83F200BE090F83E2095
:1027F000012A03D1022280F83E2003E00120704725
:1028000080F84020006801F01F010122036A8A401D
:1028100023EA02010162036A42F64441C4F2010163
:102820001A43A1F14403984202620FD040F2FF71B3
:10283000C4F20001884213DCB0F1804F1CD040F29A
:102840000041C4F20001884216D01CE00A6842F43C
:1028500000420A6040F2FF71C4F200018842EBDDE1
:1028600042F60041C4F20101884205D040F6000161
:10287000C4F20001884206D1816801F007010629EF
:1028800004BF00207047016841F001010160002091
:10289000704700007047000070470000704700005C
:1028A00070470000B0B582B001680A68CC684B6917
:1028B00002F02F05202D04F0200505D125B102B02E
:1028C000BDE8B04000F0B4BF5FEA027C1EBF03F079
:1028D000010E04F4907313EB0E0341D1036BD50684
:1028E00018D5012B16D114F0100313D00022019239
:1028F0000A6801924A680192019A496949064BD4D3
:10290000818DC28DC38D002B18BF914240F0F481A0
:1029100002B0B0BD13062DD514F080032AD090F874
:102920004120212AF4D18268B2F5805F03D1026987
:10293000002A00F06782026A531C036212784A6020
:10294000C28C013A1304C284E2D1C86820F080002E
:10295000C860C86840F04000C86002B0B0BD00BFA9
:10296000D30718BF14F4807340F0D080530700F1F0
:10297000D380D8E05206CBD514F04002C8D0CA6844
:1029800022F04002CA60202180F8411002B0BDE868
:10299000B04000F041BA00BFC16B0A68526893B200
:1029A000002BB5D0858DAB42B2D2C2858969202972
:1029B00000F0A180016851E8031F026821F48071D2
:1029C00042E80313DBB1016851E8031F026821F4F8
:1029D000807142E8031393B1016851E8031F026854
:1029E00021F4807142E803134BB1016851E8031FE1
:1029F000026821F4807142E80313002BDAD10168E8
:102A000051E8051F026821F0010142E80513C3B334
:102A1000016851E8051F026821F0010142E8051331
:102A20007BB3016851E8051F026821F0010142E80B
:102A3000051333B3016851E8051F026821F0010155
:102A400042E80513002BDAD11BE000BF016851E812
:102A5000051F026821F0400142E80513DBB101685F
:102A600051E8051F026821F0400142E8051393B1C7
:102A7000016851E8051F026821F0400142E8051392
:102A80004BB1016851E8051F026821F0400142E89E
:102A90000513002BDAD1202180F8421000210163B8
:102AA000016851E8031F026821F0100142E8031396
:102AB000DBB1016851E8031F026821F0100142E810
:102AC000031393B1016851E8031F026821F010015C
:102AD00042E803134BB1016851E8031F026821F07B
:102AE000100142E80313002BDAD1C16B04460846FB
:102AF000FDF7F8FB204602214163818DC28D891AC2
:102B000089B202B0BDE8B040FFF7C8BE436C43F0E5
:102B100001034364530706D5BEF1000F03D0436C95
:102B200043F002034364930706D5BEF1000F03D0C0
:102B3000436C43F004034364BCF1000F06D55EEA26
:102B4000050303D0436C43F008034364436C002B3C
:102B50003FF4DEAE920605D525B1044600F068FECE
:102B6000216820464969426C01F0400102F00802E8
:102B7000891800F0B98000BF016851E8031F02689E
:102B800021F4907142E80313BBB3016851E8031FBD
:102B9000026821F4907142E8031373B3016851E8AD
:102BA000031F026821F4907142E803132BB30168FC
:102BB00051E8031F026821F4907142E80313002BCF
:102BC000DAD11AE0016851E8051F026821F001011D
:102BD00042E80513DBB1016851E8051F026821F0E6
:102BE000010142E8051393B1016851E8051F02682D
:102BF00021F0010142E805134BB1016851E8051FBE
:102C0000026821F0010142E80513002BDAD1016BC3
:102C1000012924D1016851E8031F026821F0100145
:102C200042E80313DBB1016851E8031F026821F099
:102C3000100142E8031393B1016851E8031F0268D1
:102C400021F0100142E803134BB1016851E8031F62
:102C5000026821F0100142E80313002BDAD1202191
:102C600080F842100021016301684969490640F17A
:102C7000C380016851E8051F026821F0400142E865
:102C80000513DBB1016851E8051F026821F040011E
:102C900042E8051393B1016851E8051F026821F06D
:102CA000400142E805134BB1016851E8051F026875
:102CB00021F0400142E80513002BDAD1C16B002955
:102CC00000F09A8043F62502C0F60002044608464A
:102CD0004A63FDF72BFB00283FF41AAEE06B416B13
:102CE00002B0BDE8B04008470446FFF7D9FD002018
:102CF000606402B0B0BD00BF891A00BF026852E82C
:102D0000032F036822F4907243E80325BDB30268E1
:102D100052E8032F036822F4907243E8032575B349
:102D2000026852E8032F036822F4907243E80325F7
:102D30002DB3026852E8032F036822F4907243E82F
:102D40000325002DDAD11AE0026852E8052F036846
:102D500022F0010243E80525DDB1026852E8052FA3
:102D6000036822F0010243E8052595B1026852E8A4
:102D7000052F036822F0010243E805254DB10268E2
:102D800052E8052F036822F0010243E80525002DD3
:102D9000DAD1202280F8422000220263026852E841
:102DA000032F036822F0100243E80325DDB1026817
:102DB00052E8032F036822F0100243E8032595B17F
:102DC000026852E8032F036822F0100243E803254B
:102DD0004DB1026852E8032F036822F0100243E865
:102DE0000325002DDAD1022289B2426302B0BDE888
:102DF000B040FFF753BD00BF02B0BDE8B040FFF7E1
:102E00004FBD00BF026A32F8023B6FF35F234B6095
:102E1000026295E57047000070470000FEE7000081
:102E20002DE9F04782B0044600689A460B9D0A9E41
:102E30000368914643F48062026002680F4642F4E0
:102E40008071016020464FF0011100223346009549
:102E500000F032F950B120680068C00544BF4FF45B
:102E600000702064032002B0BDE8F08740F2020841
:102E70002068C0F2010807F0FE07076120464146BE
:102E800032462B4600F0FEF920B1012002B0BDE829
:102E9000F08700BF0020019020682A464169019117
:102EA0008069314601900198204600F09FFAB0B940
:102EB0002068BAF1010F09D04FEA192101612046BB
:102EC00031462A4600F092FA48B920685FFA89F143
:102ED0000161204631462A4600F088FA60B1206C34
:102EE0000428D2D12068016841F4007101600120FA
:102EF00002B0BDE8F08700BF2068002201683346B9
:102F000041F48071016020464FF00111009500F0FE
:102F1000D3F800289FD147F0010C2768204641468E
:102F200032462B46C7F810C002B0BDE8F04700F0AB
:102F3000A9B900002DE9F04383B0044600680F46AC
:102F400001680A9D0B9E41F480719946904601608C
:102F500020464FF0011100222B46009600F0ACF8FD
:102F600050B120680068C00544BF4FF40070206471
:102F7000032003B0BDE8F083206807F0FE01016183
:102F80000221C0F2010120462A46334600F07AF9B8
:102F900020B1012003B0BDE8F08300BF0020029003
:102FA0002068324641690291806929460290029860
:102FB000204600F01BFA58B1206C0428E9D12068A3
:102FC000016841F400710160012003B0BDE8F083A5
:102FD0002068B9F1010F0AD04FEA1821016120469B
:102FE0002946324600F002FA0028E5D120685FFA4F
:102FF00088F10161002003B0BDE8F08370B503687B
:10300000044653F8140F400711D40E46481C29D02B
:1030100086BB00BF1868400527D4FDF70BFB23686B
:1030200053F8140F400737D518684007F2D5002031
:1030300070BD00BF18684007F9D41868400514D463
:1030400018684007F3D4186840050ED41868400784
:10305000EDD41868400508D4186840074FF0000008
:1030600048BF70BD18684005E4D56FF480601860F3
:10307000042012E0154603E053F8140F4007D6D49D
:1030800018684005F1D4FDF7D5FA401B2368B0421B
:10309000F2D958694007EFD4202000212022216373
:1030A00084F83D2084F83E10226C104320640120F7
:1030B00084F83C1070BD00002DE9F0410546006821
:1030C0001E46144601F47F0201338FB242D0DDF870
:1030D0001880B2F5803F40F0878040693840C01BBF
:1030E000B0FA80F04009844240F0C8804EB924E034
:1030F00040693840C01BB0FA80F04009844240F07B
:10310000BD80FDF797FAA0EB08012868B142EFD91E
:1031100041693940C91BB1FA81F149098C42E7D1B3
:103120009BE000BF40693840C01BB0FA80F0400906
:1031300084424FF0000040F0A280FDF77BFA28683F
:1031400041693940C91BB1FA81F149098C42E9D181
:1031500083E000BFB2F5803F24D100BF4169394010
:10316000C91BB1FA81F149098C4240F0878041695D
:103170003940C91BB1FA81F149098C4240F07E8087
:1031800041693940C91BB1FA81F149098C4275D1B5
:1031900041693940C91BB1FA81F149098C42DDD03E
:1031A0006CE000BF81693940C91BB1FA81F149095E
:1031B0008C4263D181693940C91BB1FA81F1490957
:1031C0008C425BD181693940C91BB1FA81F149094F
:1031D0008C4253D181693940C91BB1FA81F1490947
:1031E0008C42DFD04AE000BF80693840C01BB0FA93
:1031F00080F04009844241D146B923E080693840DB
:10320000C01BB0FA80F04009844237D1FDF712FAB2
:10321000A0EB08012868B142F0D981693940C91B87
:10322000B1FA81F149098C42E8D116E08069384051
:10323000C01BB0FA80F0400984424FF0000018BF74
:10324000BDE8F081FDF7F6F9286881693940C91BAE
:10325000B1FA81F149098C42E8D10020202128638C
:1032600085F83D1085F83E00296C41F02001296465
:1032700085F83C000120BDE8F08100BF0020BDE8DA
:10328000F0810000F0B581B0044600681D46436936
:103290008FB203EA0701B94202D1002001B0F0BDAC
:1032A0004169164601323CD0490512D47EB300BFB5
:1032B000FDF7C0F9411B2068B14203D9416939408B
:1032C000B9422BD141693940B942E6D0416949053B
:1032D000EED5016841F4007101606FF480614161D5
:1032E000042000212022216384F83D2084F83E1030
:1032F000226C1043206484F83C10012001B0F0BD22
:1033000041693940B942C8D041694905E1D4FDF766
:1033100091F9206841693940B942F1D02020E0E7B5
:1033200041694905D5D441693940B942B5D04169AF
:103330004905CED441693940B942AED04169490509
:10334000C7D441693940B942A7D041694905C0D4C1
:1033500041693940B942E3D19FE7000070B50446A6
:103360000068154650F8143F5A063DD40E4629B958
:1033700026E000BF50F8141F490635D40168C9067D
:1033800021D4FDF757F9411B2068B142F2D94169B8
:103390004906EFD400202021206384F83D1084F8F2
:1033A0003E00206C40F0200018E000BFFDF742F91D
:1033B000206850F8141F4906ECD50168490613D45B
:1033C0000168C906F2D56FF01001016000202021CC
:1033D000206384F83D1084F83E00206C20640020B7
:1033E00084F83C00012070BD002070BD70B50368FA
:1033F000044653F8140F000611D40E46481C29D079
:1034000086BB00BF1868400527D4FDF713F9236871
:1034100053F8140F000637D518680006F2D50020BF
:1034200070BD00BF18680006F9D41868400514D4B0
:1034300018680006F3D4186840050ED41868000612
:10344000EDD41868400508D4186800064FF0000055
:1034500048BF70BD18684005E4D56FF480601860FF
:10346000042012E0154603E053F8140F0006D6D4EA
:1034700018684005F1D4FDF7DDF8401B2368B04221
:10348000F2D958690006EFD42020002120222163C0
:1034900084F83D2084F83E10226C10432064012003
:1034A00084F83C1070BD00002DE9F04788B00E2074
:1034B0000DF11201CDE9001040F2CC006427C2F2F8
:1034C0000000D0213B2201230297FDF76BF9BDF8E4
:1034D000120040F2800501BABDF81460090CC2F276
:1034E0000005A98331BABDF81670090CE98339BA11
:1034F000BDF81880090C298498FA88F1BDF81A40A3
:10350000090C698421BABDF81CA0090CA9849AFA97
:103510008AF1BDF81E90090CE98499FA89F1090C29
:10352000C0BA298502F028FC4FF0625102F0B8FCC5
:10353000E862F0BA02F020FC4FF0625102F0B0FCF9
:103540002863F8BA02F018FC4FF0625102F0A8FCB0
:103550006863E0BA02F010FC0024C4F20334214690
:1035600002F0F8FAE8639AFABAF002F005FC214694
:1035700002F0F0FA286499FAB9F002F0FDFB214656
:1035800002F0E8FA686498FAB8F002F0F5FB00215E
:10359000C4F2AA3102F0DEFA41F6B861C4F2122197
:1035A00002F03AFAA86308B0BDE8F0872DE9F047C9
:1035B00086B0002741F21800CDE90477CDE9027703
:1035C000C4F20200016840F6000441F010010160FD
:1035D0000168C4F2010401F0100101910199016830
:1035E00004F5006641F0200101600168002201F04D
:1035F00020010191019901684FF4005541F0040147
:103600000160016801F0040101910199016841F034
:103610000801016000684FF4005100F008000190BB
:1036200001983046FDF700F82046F02100224FF0C7
:10363000F008FCF7F9FF029502AD4FF001094FF0D9
:10364000020A30462946CDE90397CDF814A0FCF7CD
:10365000DDFE0420CDE90207204629460497FCF749
:10366000D5FE20462946CDE90289CDE9047AFCF74A
:10367000CDFE04F580602946CDE902A70497FCF74A
:10368000C5FE06B0BDE8F08780B540F2CC0045F23B
:103690000041C2F20000C4F2000148F2A06200231F
:1036A0004FF4804CC0F2010280E80E00C0E9033CF8
:1036B000C0E90533C0E90733FCF7C2FF002808BFA3
:1036C00080BDBDE88040FCF707BE000010B594B097
:1036D00040F240400021C2F200004FF080424FF61D
:1036E000FF730E91CDE90C110991CDE90711CDE9D8
:1036F0000511CDE90311CDE90111C0E90021C0E9AF
:10370000021301618161FEF799FC002818BFFCF7E4
:10371000E3FD4FF480500B9040F24040C2F20000B5
:103720000BA9FEF749FD002818BFFCF7D5FD40F2B4
:103730004040C2F20000FEF7BDFF002818BFFCF7B2
:10374000CBFD40F240400024C2F2000008A9CDE9C0
:103750000844FEF733FC002818BFFCF7BDFD6020CD
:10376000CDE9010440F24040C2F2000001A900226C
:1037700003940594FEF79CFE002818BFFCF7ACFDEF
:1037800040F24044C2F2000401A920460422FEF7A0
:103790008FFE002818BFFCF79FFD21680020B1F1C3
:1037A000804FCDE912001190109001D014B010BDDF
:1037B00041F21800C4F20200016841F00401016006
:1037C000006810A900F004000F900F9803201090DB
:1037D00002201190139040F60000C4F20100FCF7A3
:1037E00015FE14B010BD0000FEE70000FEE700006B
:1037F0007047000070470000FDF75EBA7047000098
:1038000040F2F830C2F20000FEF7A8BD40F2F830F6
:10381000C2F20000FEF7A2BD40F24040C2F200003A
:10382000FEF79CBD406A0021C185C184FFF738B80E
:1038300081B090F84210222921D183680246B3F565
:10384000805F09D152F8281F52F8183C002B63D032
:1038500003685B680AE000BF52F8281F13B90369C8
:10386000002BF5D003685B6803F07F030B701168D1
:1038700001311160C18D01390A04C18502D001B046
:10388000704700BF0168CA6822F02002CA60CA6897
:1038900022F48072CA604A6922F001024A61202142
:1038A00080F8421000214163026B012A3CD1016380
:1038B000016851E8031F026821F0100142E8031378
:1038C000DBB1016851E8031F026821F0100142E8F2
:1038D000031393B1016851E8031F026821F010013E
:1038E00042E803134BB1016851E8031F026821F05D
:1038F000100142E80313002BDAD101680A68D206EE
:1039000006D5002200920A68009249680091009949
:10391000818D01B0FEF7C2BF026852686FF35F226B
:1039200021F8022B8162A5E701B0FFF773BA00000E
:1039300040F28840C2F20000FEF7B4BF80B5D0F874
:10394000B42252689047002080BD000080B5134625
:103950000A46002100F010F9002080BD80B5134612
:103960000A46002100F0BCF9002080BD80B5052189
:10397000C0F8941200210022002300F0FDF800207E
:1039800080BD000080B513460A460221C0F894129B
:103990000021C0E9073300F0A3F9002080BD00003A
:1039A00080B50421C0F8941200210022002300F009
:1039B00097F9002080BD000080B5D0F8C002FDF767
:1039C0003FFA40F200220223C100C0F20122042883
:1039D00038BF22FA01F3D8B280BD0000B0B569B19A
:1039E000D0F8B42252693AB190F89C32032B03D13B
:1039F000904700210846B0BD0220B0BDD0F8941217
:103A0000002918BF04290FD18021044600F04CF989
:103A1000204690F8A01201294FF00001EAD180F869
:103A2000A0120846B0BD00BF0229F2D1D0E908318A
:103A30008B420FD9591A8BB2016211461A460446BD
:103A4000FFF78CFF204600210022002300F094F8AD
:103A5000DEE700BFC2698A4212D3B2FBF1F303FB77
:103A6000112169B9D0F898128A4209D200210022A6
:103A700004460025FFF772FFC4F89852E2E700BF42
:103A8000D0F8B412C96831B190F89C22032A02D14F
:103A90000446884720468021044600F005F9204668
:103AA000FFF764FFB4E7000010B559B1D0F8B422B5
:103AB00092692AB190F89C32032B01D190472EE0F5
:103AC000022010BDD0F894120024052912D0032939
:103AD00026D1D0E958318B4214D95B1AC0F8603135
:103AE0008B4238BF19468BB211461A46FFF72EFF9C
:103AF00015E000BF0021C0F8944200F0D5F8204640
:103B000010BD00BFD0F8B412096931B190F89C2201
:103B1000032A02D1044688472046FFF741FF0024CC
:103B2000204610BDD0F8C00201F07F034AB203EB7B
:103B3000830301EB810100EBC30300EBC10000F53F
:103B4000A970002A48BF03F11200007870470000F6
:103B500080B59446D0F8C0021A466346FDF7A0F936
:103B600040F200220223C100C0F20122042838BF23
:103B700022FA01F3D8B280BD80B5D0F8C002FDF7BB
:103B8000BDF940F200220223C100C0F20122042844
:103B900038BF22FA01F3D8B280BD0000F0B581B081
:103BA000002100224023044600254026FFF7D0FFD5
:103BB00001272046802100224023C4F85871C4F810
:103BC0006461FFF7C5FFD4F8B812A761666284F894
:103BD0009C72C4F894526560C4F8A45229B1D4F818
:103BE000B41220464A6800219047002001B0F0BD81
:103BF00090F89C12042904BF90F89D1280F89C1242
:103C00000020704790F89C12032907D1D0F8B41215
:103C1000C96919B180B58847BDE880400020704768
:103C2000024600201174704780B5D0F8C002FDF73D
:103C300089FE40F200220223C100C0F201220428C2
:103C400038BF22FA01F3D8B280BD0000B0B500F54C
:103C50002A740546204600F055F895F8A812284623
:103C6000B5F8AE5201F01F020123022AC0E9A535C2
:103C70000ED0012A06D08AB9214600F05DF8002056
:103C8000B0BD00BF214600F071FA0020B0BD00BFFA
:103C9000214600F0C7F90020B0BD00BF01F080014F
:103CA00000F002F80020B0BD80B5D0F8C002FDF7EA
:103CB0003FF940F200220223C100C0F20122042891
:103CC00038BF22FA01F3D8B280BD0000014690F857
:103CD0009C02042281F89D02002081F89C227047FA
:103CE00080B5D0F8C002FDF759F940F20022022356
:103CF000C100C0F20122042838BF22FA01F3D8B271
:103D000080BD00000A7802704A7842704A8842807A
:103D10008A888280C988C18070470000D0F8B422A8
:103D2000002A04BF0220704780B51268904700281F
:103D300018BF0120400080BD70B582B00A78C2F380
:103D40004112531E022B07D2D0F8B422926890473A
:103D5000002002B070BD00BF002A40F057814A78B1
:103D6000092A00F25381DFE812F00B0035005101FF
:103D70005B00510167008B0051012500410000BF2D
:103D800090F89C22013A022A00F24081C988022957
:103D900040F03C81D0F8A4120322002908BF012280
:103DA000014641F80C2F0222FFF7ECFD002002B083
:103DB00070BD00BFC988012940F0288190F89C128D
:103DC0004A1E022A80F074800022014641F8082F22
:103DD00072E000BF90F89C22013A022A00F216819C
:103DE00049880129B4D100211FE000BF4A8840F270
:103DF000C806D1B2C2F200060229327080F00681F4
:103E000090F89C22032A5DD0022A40F0838000298A
:103E100000F0C58003220446416080F89C22B7E090
:103E2000498801297FF494AF0121C0F8A412FFF75B
:103E3000B7FD002002B070BD8A88002A40F0E680FD
:103E4000CA88002A40F0E2804D887F2D00F2DE8093
:103E500090F89C12032900F0D980E9B280F89E52B4
:103E60000446FFF7E1FE20462646FFF799FD002DA8
:103E70000CBF0120022086F89C02002002B070BD19
:103E80004A884FF0FF3303EB12230026062BADF8D0
:103E9000066000F2BB80DFE803F0052D1FB9B94DC5
:103EA000590000BF0D46D0F8B0120A6891E000BF7B
:103EB000032940F0AB80011D0122FFF763FD0020C4
:103EC00002B070BD002951D04168012958D1FFF7D7
:103ED00067FD002002B070BDD2B2052A00F29680C4
:103EE000DFE802F0046E666A627200BFD0F8B022AA
:103EF00052686CE00D46017C0446D0F8B4020029FB
:103F00000CBF816AC16A0DF1060088470146022094
:103F100029E000BF80210446FFF7C6FE20460021AD
:103F2000FFF7C2FE31782046FFF708FD002002B0FF
:103F300070BD00BF027C002A68D10446D0F8B402EC
:103F40000D46416B0DF10600884747E0027C002AD0
:103F50005CD10446D0F8B4020D46016B0DF10600A9
:103F6000884701460720487039E000BF022280F8E8
:103F70009C22002242600446FFF7E0FC0EE000BFF6
:103F8000C9B20546FFF7DAFC31782C46696028464D
:103F9000FFF7C4FE022801D1204638E02046FFF793
:103FA000FFFC002002B070BDD0F8B02252690EE0D4
:103FB000D0F8B022D2680AE0D0F8B022126906E048
:103FC000D0F8B022926802E0D0F8B0229269EAB14B
:103FD0000D460446007C0DF1060190470146BDF8F0
:103FE000060048B1EA883AB1904238BF02462046FE
:103FF000ADF80620FFF7C6FCE88800287FF4A8AEDD
:104000002046FFF7CDFC002002B070BD04468021A1
:10401000FFF74AFE20460021FFF746FE002002B0CF
:1040200070BD0000B0B50B784FF0FF3503F06002B3
:1040300005EB5215022D05D2D0F8B42292689047B4
:104040000020B0BDC3F34113DBBB202A06D1D0F85A
:10405000B4229268BDE8B040104700BF4B780A46D2
:1040600009792BB3012B11D0032B2AD190F89C3264
:10407000032B0FD15388C3BB11F07F0335D0D288F7
:104080009ABB0446FFF710FE2EE000BF90F89C326A
:10409000032B21D0022B14D14A0612D00446FFF77D
:1040A00003FE20468021FFF7FFFD0020B0BD00BFCA
:1040B00090F89C22032A1DD0022A08BF5FEA4162C1
:1040C00040D080210446FFF7EFFD20460021FFF796
:1040D000EBFD0020B0BD00BF5288002A44D14A0643
:1040E00003D00446FFF768FC2046FFF759FC002088
:1040F000B0BD00BF01F00F0202EB8202802900EB8D
:1041000082022CBF9269D2F85821002AD9D001F03E
:104110007F0202EB820200EB820202F1140401EB47
:10412000810200EB8202802938BF02F5AA744A0698
:1041300014D00546FFF7F6FC01462846002918BFB3
:1041400001210CE009064FF014024FF0000358BFA4
:104150004FF4AA728118835003E000BF0021216050
:1041600021460222FFF70EFC0020B0BDB0B50A7850
:1041700002F06002602A08D090F89C22013A022ADC
:1041800003D88A8812F0FE0F0AD080210446FFF778
:104190008BFD20460021FFF787FD0020B0BD00BF4A
:1041A000D0F8B422044692680D469047E988002969
:1041B00008BF0028F1D12046FFF7F2FB0020B0BD78
:1041C000F0B50B78024691F803E030F8230047F28F
:1041D0007066BEF1030F20EA060C11D80020DFE85C
:1041E0000EF00307100B00BF4CF4007C09E000BF89
:1041F0004CF4806C05E000BF4CF4C06C01E000BFE3
:10420000012048F28004CFF6FF744CEA040622F83D
:10421000236032F8236040F60F752E401E4326437C
:1042200022F823600E7B48F2800C002E52D032F828
:10423000234040F60F652C4048F28005BEF1020F86
:1042400008BF05F580752C4322F82340B2F8504092
:104250000E8902EB03152C4426F00106A4F8006435
:10426000B2F850404E892C4426F00105A4F80854B9
:104270004C7832F82310002C56D0490409D532F876
:10428000231040F60F742140614401F5804122F86B
:10429000231032F82310490608D532F8231040F6CF
:1042A0000F7421406144403122F8231032F823106A
:1042B00040F63F7421400CF120044C40BEF1010F48
:1042C00008BF41EA0C0422F8234032F8231043F6D9
:1042D0000F7750E04E78B2F85040CF881D01002E85
:1042E00027F001064ED051192144A1F8006432F89C
:1042F0002310490608D532F8231040F60F742140E8
:104300006144403122F8231032F8231040F63F7404
:10431000BEF1010F01EA04012ED00CF12007794013
:1043200022F82310F0BD00BF490409D532F823104C
:1043300040F60F773940614401F5804122F823109F
:1043400032F82310490608D532F8231040F60F77CB
:1043500039406144403122F8231032F8231043F6EB
:104360000F7739400CF54057794022F8231032F886
:10437000231040F63F77394041EA0C0122F8231020
:10438000F0BD00BF15442F19A7F80864B2F850E03B
:1043900005F20C4434F80E506FF39F2524F80E50AC
:1043A00009693F290CD3CF063EF804704FEA511536
:1043B0004FF0FF3608BF06EB511547EA852111E0A3
:1043C00071B101F0010534F80E6005EB510146EAC8
:1043D000812124F80E1032F8231049040DD416E080
:1043E00034F80E1048F20005CFF6FF75294324F883
:1043F0000E1032F82310490409D532F8231040F684
:104400000F773940614401F5804122F823105BB1F8
:1044100032F8231043F60F7739400CF500577940F6
:1044200022F82310F0BD00BF118843F60F77394002
:104430000CF54057794022F82310F0BD002070475A
:104440000A7B0AB10020704791F800C04A7830F822
:104450002C30BAB15A0648F2A0030CD580B530F81A
:104460002CE040F60F7202EA0E021A44203220F8C5
:104470002C20BDE88040C9780129E3D040F63F7187
:1044800010E000BF59044BF2800309D530F82C101E
:1044900040F60F721140194401F5805120F82C109C
:1044A00043F60F7130F82C201140594020F82C10A1
:1044B0000020704702460B78487832F823C040F657
:1044C0003F71002848F2900008BF43F60F71CFF605
:1044D000FF7008BF00F57F6001EA0C014140002039
:1044E00022F82310704700002DE9F04F82B04F787A
:1044F000012F5BD18B690A690F7B934228BF13465A
:10450000002F7BD0CF780C6A022F40F0C1800D784D
:1045100040F60F6630F825704FEA850E944206EAA1
:10452000070648F2B00C40F2218147F65077F61B9F
:10453000D036A4EB030A20F82560C1F820A030F89B
:104540002560B0F850702D0176069EB200EB05088C
:1045500000F1608108EB0704A4F80434D1F814B02A
:10456000002E00F005830D89013600EB450505F5A9
:1045700080694FF0FF3505EB5604C6F34105002D69
:104580004FEA560700F0E0815E46CDE9004836F874
:10459000028B5C46CB46012D2BF8048B40F0D88172
:1045A000DDF80480013FD946A346CEE20A7B002A0B
:1045B00048D0CA78012A00F0A180022A40F0C680C3
:1045C0000A78002F40F06382B0F85070130107445E
:1045D00007F20446F75A6FF39F27F7520F693F2FF0
:1045E000C0F05681FC064FEA57159C5B4FF0FF3C2C
:1045F00008BF0CEB571544EA85251AE21A0400F0AF
:104600007B81CA88D1F814E000EB420202F5806891
:104610009AB201324FF0FF37C2F3410407EB520C5C
:10462000002C4FEA520200F05481774637F8025BC3
:104630004646012C26F8045B40F01881013ABE463C
:10464000B04646E18E690B69F21A38BF00228A61D2
:10465000B0F850700A7807444FEA021107F20C478D
:104660007D5A38BF33466FF39F253F2B7D5271D360
:10467000DC06CC5B4FEA53164FF0FF3508BF05EB65
:10468000531644EA862343F40043CB5346E200BF6B
:10469000E21A0F780A6230F82720B0F850403D0146
:1046A000520605444FEA870E9AB248F2B00C2C44E9
:1046B00000F18C80002AA4F8043400F00D830B89EB
:1046C0000132496900EB43034FF0FF34C2F3410567
:1046D00003F5806304EB5208002D4FEA520200F00C
:1046E00058810E4636F8024B1F46012D27F8044B21
:1046F00040F01281013A31463B464AE18A690B6932
:10470000D61A3CBF002613460A78002F8E6140F06F
:104710000582B0F850701101074407F204456F5A42
:104720003F2B6FF39F274FEA53164FEAC36C6F522C
:10473000C0F0BA8037464C5B4FF0FF3EBCF1000F33
:1047400008BF0EEB531744EA8727BAE1012002B0F5
:10475000BDE8F08F002B00F0958003F001067D5A34
:1047600006EB530345EA83237B52D7E147F65072A9
:10477000B21A303A20F82520B0F8502000EB05138B
:104780001A442304A2F8044400F0A6820A89496965
:1047900000EB420202F58063A2B201324FF0FF3417
:1047A000C2F3410504EB5208002D4FEA520200F01B
:1047B0000C810E4636F8024B1F46012D27F8044B9C
:1047C00040F0B280013A31463B46FEE0002AA4F8B0
:1047D0000C3400F081824B890132496900EB4303BC
:1047E0004FF0FF34C2F3410503F5806304EB520838
:1047F000002D4FEA520200F004810E4636F8024BBB
:104800001F46012D27F8044B40F09680013A3146AF
:104810003B46F6E008EB0705A5F80C34D1F814B0D8
:10482000002E00F0FD814D89013600EB450505F5B0
:1048300080694FF0FF3505EB5604C6F34105002DA6
:104840004FEA560700F082805E46CDE9004836F810
:10485000028B5C46CB46012D2BF8048B40F0868002
:10486000DDF80480013FD946A346C6E1BEF80250F8
:10487000022CA8F8045023D108F108080EF1040E08
:10488000023A26E07B5A43F400437B5246E100BFE4
:10489000002F00F0CD8007F00105F45A05EB570515
:1048A00044EA8525CAE000BF002B00F0098103F02F
:1048B00001076C5A07EB530744EA872406E100BF5F
:1048C000BEF804400EF1060EA8F8084008F10C08E6
:1048D000033ABCF1030F0FD3AEF10807A8F110069D
:1048E00037F8085F043A26F8105F7D88B580BD88E8
:1048F0003581FD88B581F3D1B0F8502009780244A4
:1049000002EB011248F2B00CA2F804344FEA810E17
:1049100040F63F71E2E100BF4C88022D9C8033D10C
:1049200008330431023A34E04C88022D9C8047D190
:1049300008330431023A48E04C88022D9C805BD158
:1049400008330431023A5CE05E46FFE05E4655E122
:104950006688022DA346A9F8046040F0EB8009F1B7
:1049600008090BF10406023FEDE000BF6688022D46
:10497000A346A9F8046040F0358109F108090BF15C
:104980000406023F37E100BF8C8806311C810C33DE
:10499000033AB8F1030FC0F09F81A1F10804103B66
:1049A00034F8081F043A23F8101F61889980A18801
:1049B0001981E188998140F63F71F1D18EE100BF04
:1049C0008C8806311C810C33033AB8F1030FC0F018
:1049D0008381A1F10804103B34F8081F043A23F83E
:1049E000101F61889980A1881981E188998140F61A
:1049F0003F71F1D172E100BF8C8806311C810C330C
:104A0000033AB8F1030FC0F06781A1F10804103B2D
:104A100034F8081F043A23F8101F61889980A18890
:104A20001981E188998140F63F71F1D156E100BFCB
:104A3000F55A48F20004CFF6FF742543F552B0F85A
:104A400050603F2F064406F20C46F55A6FF39F253F
:104A5000F5520BD3FC069C5B4FEA57154FF0FF3C19
:104A600008BF0CEB571544EA85270AE047B107F069
:104A70000105F45A05EB570744EA872706E000BF13
:104A8000F75A48F20005CFF6FF752F43F752C96970
:104A9000002943D030F8221044F2400319409942D3
:104AA00000D0D9BB30F8221040F60F73194048F2FD
:104AB000B003CFF6FF731943103120F822102DE018
:104AC0006F5A48F20004CFF6FF743C436C52B0F8C2
:104AD00050703F2B074407F20C456F5A6FF39F2726
:104AE0006F520DD34C5B4FF0FF37BCF1000F08BF86
:104AF00007EB531644EA862343F400434B530DE07F
:104B000043B103F001076E5A07EB530346EA8323D0
:104B100003E000BF6B5A43F400436B5242F6D0717E
:104B2000A1F5E0414FEA820EA1F5756C43F60F71D5
:104B3000D4E000BFBBF804500BF10606A9F80850FA
:104B400009F10C09033FDDF80480009C032C0FD30E
:104B5000083EA9F1100500BF36F8084F043F25F8BC
:104B6000104F7488AC80B4882C81F488AC81F3D168
:104B70000BEB030600244E61924588BFAAEB0304A9
:104B80000C62B0F8502088BF9A4608EB02031FFA67
:104B90008AF2002AA3F80CA400F09E804989013211
:104BA00000EB41014FF0FF33C2F3410401F5806196
:104BB00003EB5208002C4FEA52026ED0354635F80E
:104BC000023B0F46012C27F8043B03D1013A2E4645
:104BD000394662E07388022C8B8059D10831043643
:104BE000023A5AE0BBF804500BF10606A9F8085047
:104BF00009F10C09033FDDF80480009C032C0FD35E
:104C0000083EA9F1100500BF36F8084F043F25F80B
:104C1000104F7488AC80B4882C81F488AC81F3D1B7
:104C20000BEB030600244E61924588BFAAEB0304F8
:104C30000C62B0F8502088BF9A4608EB02031FFAB6
:104C40008AF2002AA3F804A446D00989013200EBB5
:104C500041014FF0FF33C2F3410401F5806103EBE2
:104C600052084FEA5202A4B3354635F8023B0F46CC
:104C7000012C27F8043B03D1013A2E46394628E09F
:104C80007388022C8B801FD108310436023A20E051
:104C9000B38806360B810C31033AB8F1030F1BD3EE
:104CA000A6F10803A1F1100433F8081F043A24F810
:104CB000101F5988A18099882181D988A18140F647
:104CC0003F71F1D10AE000BFB38806360B810C3189
:104CD000033AB8F1030F0DD240F63F7130F80E20C1
:104CE000114081EA0C0120F80E10002002B0BDE84E
:104CF000F08F00BFA6F10803A1F1100433F8081FDC
:104D0000043A24F8101F5988A18099882181D988F4
:104D1000A18140F63F71F1D1E0E7000040F22010A0
:104D2000C2F20000FCF756B940F22010C2F20000B7
:104D3000FCF750B9B0F844007047000070B500EBC4
:104D40004200022B00F5806402D220460A464AE067
:104D50004FF0FF30C3F341054FEA530C00EB530E05
:104D600075B1204630F8046B0A46012D22F8026B1B
:104D70000CD1ACF1010C1146BEF1030F1FD232E091
:104D80002046BEF1030F1AD22DE000BFA088022DED
:104D9000488009D10A1D04F10800ACF1020C11464B
:104DA000BEF1030F0BD21EE020898A1D888004F11A
:104DB0000C00ACF1030C1146BEF1030F13D30A46ED
:104DC00030F8101BBCF1040C22F8081B30F80C1C46
:104DD00022F8061C30F8081C22F8041C30F8041CC9
:104DE00022F8021CECD1D9071CBF0088107070BDDE
:104DF000002904BF8021A0F84C100020704700005B
:104E0000002B08BF7047B0B500EB420000F5806E84
:104E1000581C4FF0FF32C0F3410302EB500C4FEA35
:104E20005000C3B10A4632F8025B7446012B24F8E5
:104E3000045B07D101381146A646BCF1030F0DD221
:104E40001CE000BF4A88022BAEF804201AD10EF1F4
:104E5000080E04310238BCF1030F0FD30839AEF14C
:104E6000100200BF31F8083F043822F8103F4B8889
:104E700093808B881381CB889381F3D1BDE8B040B8
:104E8000704700BF8A880631AEF808200EF10C0E7C
:104E90000338BCF1030FE1D2F0E70000FEE70000A9
:104EA0009AB0FBF717FF00240120CDE91544CDE9A6
:104EB0001344109014904FF4E0100DF1400A4FF499
:104EC0008031022519905046CDE91114CDE91751D2
:104ED000FCF75AFE20B1EFF3108072B6FEE700BF78
:104EE0000F20CDE90B054FF480600BAECDE90E0429
:104EF000304602210D94FCF755FD28B1EFF31080E8
:104F000072B600BFFEE700BF40F60004C4F2010421
:104F1000FEF74CFBFEF7DAFBFEF7B6FB4FF4FA7038
:104F2000FBF760FA40F24047C2F200073846002122
:104F30000025FDF741FC38460421FDF73DFC2046E5
:104F400010210022FBF770FB204620210022FBF7F6
:104F50006BFB38680022C16A456320464021FBF79D
:104F600063FB2046802100224FF08008FBF75CFBAA
:104F70003868C16A856332208DF82C50FBF732FA0D
:104F800040F2CC004FF064094FF0010BC2F2000078
:104F9000D02175220123CDE9006BCDF80890FBF7F5
:104FA00001FC9DF82C00682874D140F2CC06C2F2B6
:104FB00000063046D0216B2201238DF84080CDE9D8
:104FC00000ABCDF80890FBF793FD6420FBF70AFADD
:104FD0003046D0216B2201238DF84050CDE900AB43
:104FE000CDF80890FBF784FD3220FBF7FBF9272072
:104FF0008DF840003046D02119220123CDE900ABC5
:10500000CDF80890FBF774FD3046D0211A22012319
:105010008DF84050CDE900ABCDF80890FBF768FD66
:105020003046D0211B2201238DF84050CDE900AB42
:10503000CDF80890FBF75CFD3046D0211C220123FF
:105040008DF84050CDE900ABCDF80890FBF750FD4E
:105050004FF4FA704FF4FA74FBF7C4F940F280078A
:10506000C2F20007FEF720FA396C284600F0D4FCA3
:1050700005460220FBF7B6F9013CF3D10021C4F24A
:10508000FA31284600F066FDB860FBF7D3FA044613
:1050900042E000BF204610210022FBF7C5FA20465F
:1050A00020210022FBF7C0FA38680022C16A45635C
:1050B00020464021FBF7B8FA204680210022FBF76A
:1050C000B3FA3868C16A8563E4E700BF204610215F
:1050D0000022FBF7A9FA204620210022FBF7A4FAC0
:1050E00040F24045C2F2000528680026C16A4663C6
:1050F000204640210022FBF797FA2046802100221B
:10510000FBF792FA28680DF1400AC16A8663099C90
:10511000C7E90366C7E90566FBF78CFA0146001B81
:105120000528F9D3099100F03FFE0021C4F27A412D
:1051300000F010FD0A900E20019040F2CC00C2F267
:105140000000D0213B2201236426CDF800A0029666
:10515000FBF728FBBDF84000BDF8428001BA090CFE
:10516000B98398FA88F1BDF84440090CF98321BA53
:10517000BDF84690090C398499FA89F1BDF8485078
:10518000090C798429BABDF84A60090CB98431BA8E
:10519000BDF84CB040F28002090CC2F20002D1848A
:1051A0009BFA8BF1090CC0BA118500F0E5FD4FF0B8
:1051B000625100F075FE824640F28000C2F20000AB
:1051C000C0F82CA098FAB8F000F0D6FD4FF062516C
:1051D00000F066FE40F28001C2F200010863E0BA0E
:1051E00000F0CAFD4FF0625100F05AFE044640F252
:1051F0008000C2F200004463E8BA00F0BDFD002563
:10520000C4F20335294600F0A5FC40F28001C2F249
:105210000001C863F0BA00F0AFFD294600F09AFC27
:10522000064640F28000C2F2000006649BFABBF022
:1052300040F28007C2F2000700F09EFD294600F010
:1052400089FC786499FAB9F000F096FD0021C4F267
:10525000AA3100F07FFC41F6B861C4F2122100F0DF
:10526000DBFBB8635046214600F084FA42F6E66163
:10527000C4F2652100F014FED7E90141054630462D
:1052800000F0E4FE0A9900F00BFE214600F0C4FB9A
:105290004DF20A7104462846C3F6A34100F000FE11
:1052A0004EF2481105462046C3F67A7100F0F8FD2B
:1052B000294600F0B1FB40F60004C4F20104804628
:1052C000786004F580600221FBF7A8F906462046C5
:1052D0000421FBF7A3F90021054628F00040C4F2A1
:1052E0000C2100F01DFC00283FF4F0AE681EB0FA5F
:1052F00080F04409701EB0FA80F00695450940F22E
:105300000000C2F20000D7F814B0D0F810A0C068B6
:105310005946059685EA0406089000F07DFB814613
:10532000002E079618BFD146A54211D00A984FF01B
:10533000814100F0B5FD04460020B8615846214681
:1053400000F0EEFB40B95846214600F07FFE10E029
:10535000CDF80CB00FE000BF84F00041584600F0DB
:10536000D8FB28B92046594600F056FB01E000BFA3
:1053700000200390786140F20000C2F20000D0E902
:1053800000A104918168484600F046FB414600F0C8
:105390005DFEDDF828B00646594600F081FDD7E9EC
:1053A0000315D7F8009000F037FB40F20008C4F274
:1053B000C8284146044600F0A5FB002100281CBF78
:1053C0000024C4F2C8242046CCF2C82100F0AFFB70
:1053D0000028304629461CBF0024CCF2C824FC60BB
:1053E00000F034FE594600F0B5FB0546484621461C
:1053F0003E6100F055FD04465046314600F050FD38
:10540000214600F009FB04460498294600F048FDB7
:10541000214600F001FB4146054600F073FB0021E8
:1054200000281CBF0025C4F2C8252846CCF2C8219C
:1054300000F07DFB00281CBF0025CCF2C8252846C3
:1054400000F07EFCDDF81C800646B8F1000F1DD090
:10545000089F0021384600F06AFB044600283846C1
:105460004FF0000118BF012400F061FB40F6000975
:1054700040F2404B0F25C4F201090DF1400AC2F27F
:10548000000B002818BF6FF00E057CE058464FF067
:10549000814100F005FDBC6981462846214600F0A7
:1054A000D5FD4DF20A71C3F6A35100F0F9FC214677
:1054B00000F0B2FA0021CCF25C210546B86100F0A0
:1054C00028FB5C4640F2404B0DF1400AC2F2000B53
:1054D00050B900212046CCF2400100F0E1FC0399D4
:1054E00000F09AFA089F1DE000212846C4F25C21D2
:1054F00000F016FB089F48B900212046C4F2400185
:1055000000F0CEFC039900F087FA0BE0039C4946BB
:10551000204600F005FB002840F006812046494661
:1055200000F094FD044600212046CCF2C00100F0BA
:10553000FEFA0025C4F2C00500281CBF0024CCF2EE
:10554000C0042046294600F0F2FA002840F280000C
:10555000C2F2000008BF2C4644613846002100F02A
:10556000E6FA0446002838464FF0000118BF01242F
:1055700000F0DDFA1E2540F60009002818BF6FF084
:105580001D05C4F20109059A2946501E18BF0120C5
:10559000AE42B8BF3146C8BF3546002C18BF0D46D5
:1055A0000699012A08D1012906D0AC1D063DB8F1A3
:1055B000000F0ED131E000BFC9B20139B1FA81F15B
:1055C00049092C4608401CBF063C1035B8F1000FB5
:1055D00023D03846002100F0AAFA0F26002818BF71
:1055E0006FF00E06B04638460021B542B8BFA84657
:1055F000D8BF354600F09BFA002818BF4546B04694
:1056000038460021B442B8BFA046C8BF264600F0C5
:105610008EFA002818BF46463446681E15F10A0F58
:105620006FF0090128BF0D46092838BF0A25601E02
:1056300014F10A0F28BF0C46092838BF0A24642D2C
:105640004FF06406B8BF2E4616F1640F6FF063008A
:10565000D8BF064648461021012D07DB0122FAF784
:10566000E3FF4846202100220AE000BF0022FAF7AB
:10567000DBFF48462021B5F1FF3F49DD002200262F
:10568000FAF7D2FFDBF8000048F21F52C16AC5F2F8
:10569000EB1201317143A1FB0212642C4FF064053F
:1056A0004FEA5211B8BF254615F1640F6FF063023F
:1056B000D8BF1546012C416348464FF0400107DB37
:1056C0000122FAF7B1FF4846802100220AE000BF1C
:1056D0000022FAF7A9FF48468021B4F1FF3F1DDD03
:1056E00000220025FAF7A0FFDBF80000099CC16A40
:1056F00048F21F5201316943C5F2EB12A1FB0212BD
:10570000510940F280078163C2F2000704E500BF3F
:105710000122FAF789FF7642B4E700BF0122FAF7C7
:1057200083FF6D42E0E700BF89F00041204600F0B2
:10573000F0F918B948462146E5E600BF0024F2E634
:105740004100080218BF04200A0E18BF40F00100F3
:105750004FF07F4232EA010108BF40F00200012809
:1057600008BF0520704700F057B96FF05E010807C9
:1057700000F013BD2DE9F0474FF0684202EB400303
:105780000C460546B3F1654F3CBF02EB4102B2F156
:10579000654F80F0CD8000BFC0F3C752C1F3C7533F
:1057A000D21A1B2A06DD10F0004F14BF8748884824
:1057B000BDE8F08712F11A0F2FDA11F0004F06D072
:1057C00010F0004F0CBF83488348BDE8F0872146A6
:1057D000284600F0BFF90646FFF7B2FF042808BFCD
:1057E000FFF7C3FF2846FFF7ABFF05462046FFF74C
:1057F000A7FF04463046FFF7A3FF042D18BF052D71
:1058000008D1042C18BF052C04D1002804BF0220A5
:10581000FAF71AFD3046BDE8F0874200B2EB410FBF
:1058200025D910F0004F19BF6C4F6D4E6D4F6E4E65
:10583000224685F0004415460A4680F00041104695
:105840000A1A5200B2F1807F3ED248406749DFF821
:10585000A0A110F0004F18D04FF03F48384600F09C
:10586000F5FB07465146304600F0F0FB17E011F01B
:10587000004F04BF00263746E2D010F0004F19BF9A
:105880005C4F5D4E5D4F5E4EDAE74FF07C58384618
:1058900000F0C2F807465146304600F0BDF8064613
:1058A0004146284600F0FCFA214600F0B5F8824651
:1058B0002146404600F0F4FA294600F0BDFB51466F
:1058C00000F048F9044604E02146284600F042F979
:1058D0000446014600F0E4FA80464A4900F0E0FA46
:1058E000494900F099F8414600F0DAFA474900F0DA
:1058F00093F8414600F0D4FA454900F08DF841464E
:1059000000F0CEFA434900F087F8054641462046AC
:1059100000F0C6FA294600F0C3FA314600F07CF8E0
:10592000214600F079F83946BDE8F04700F074B838
:105930004FF07F42B2EB400F28BFB2EB410F03D2D2
:10594000BDE8F047FFF70FBF40EA01035B0008BF67
:1059500044F0FF410AD0B2EB400F08BFB2EB410F59
:1059600006D125F0804024F0804105460C4613E71F
:10597000B2EB400F12BF5FEA410345F0FF4004F075
:1059800000413FF409AFB2EB410F12BF5FEA4002A2
:1059900005F0004044F0FF413FF4FEAE4A0092EAB9
:1059A00040033FF5F9AE002AACBF4FF09F464FF0E1
:1059B0003E56314600F074FA05463146204600F066
:1059C0006FFA044628462146E6E60000DB0FC9BF11
:1059D000DB0FC93FDB0F4940DB0F49C00000C9BFE7
:1059E00022AAFDB90000C93F22AAFD390060ED3EA0
:1059F000C30ACE37000049C022AA7DBA0000494040
:105A000022AA7D3A2DAD65BD8FB8D53D0FB511BE2B
:105A100061C84C3EA8AAAABE90EA010F48BF81F017
:105A2000004100F11A83421A3CBF801A89184FEADC
:105A3000D052A2EBD1534FF07F4C1CEA410F18BF5C
:105A40009CEA026F00F03B804FF0004C4CEA0020D3
:105A50004CEA012121FA03FC10EB0C0C1ED202F1DE
:105A6000FF325FEA1C2040EBC25038BF70471CF089
:105A70007F0F4FEA400C18BFBCF17F4F38BF704713
:105A8000C3F12003994008BF20F00100BCF17F4F13
:105A900038BF7047A0F1C04000F0C9BA4FEA3C00DF
:105AA000000A40EBC25028BF1CF0FF0F4FEA400C29
:105AB000E6D018BFBCF17F4F38BF7047EAE79CEAD9
:105AC000026F05D010EA5C0F08BF00F0004070477D
:105AD00010B500F066FA00BF64FBBE3E014800F05E
